:020000040800F2
:100000005005002001010008CB1B0008151800084E
:10001000C91B000891010008F5200008000000003D
:10002000000000000000000000000000CF1B0008DE
:100030000902000800000000CD1B0008D11B0008C9
:100040001B0100081B0100081B0100081B01000820
:100050001B0100081B0100081B0100081B01000810
:100060001B0100081B0100081B0100081B01000800
:100070001B0100081B0100081B0100081B010008F0
:100080001B0100081B0100081B0100081B010008E0
:100090001B0100081B0100081B0100081B010008D0
:1000A0001B0100081B0100081B0100081B010008C0
:1000B0001B010008651C00081B0100081B0100084B
:1000C0001B0100081B0100081B0100081B010008A0
:1000D0001B010008E92000081B0100081B010008A3
:1000E0001B0100081B0100081B010008DFF80CD0F1
:1000F00000F03CF800480047652200085005002049
:100100000648804706480047FEE7FEE7FEE7FEE7B1
:10011000FEE7FEE7FEE7FEE7FEE7FEE71D1C000840
:10012000ED000008D2B201E000F8012B491EFBD21D
:1001300070470022F6E710B513460A4604461946F2
:10014000FFF7F0FF204610BD30B505462A460B46A6
:1001500012F8010B13F8014B08B1A042F8D01CB102
:10016000002802D06D1CF1E7284630BD064C074D33
:1001700006E0E06840F0010394E807009847103477
:10018000AC42F6D3FFF7B6FF44240008642400080D
:10019000FEE7000010B502F039F900228021054881
:1001A00000F087F944F2506000F006F8BDE8104016
:1001B00002F01EB900080140064A10B5536806490E
:1001C000064C0968B1FBF4F141435068C01A8842FB
:1001D000FBD310BD001000E01C00002040420F00C7
:1001E00007480168C9010AD4016841F080710160C3
:1001F000044800214160016841F00101016070473D
:10020000FCED00E0001000E07047000010B590F831
:1002100021100024022903D00421816301243DE040
:1002200001680A6822F00E020A6001680A6822F07A
:1002300001020A601A4A0168914201D1012121E0BC
:10024000174A1432914201D110211BE0144A28327E
:10025000914201D1891515E0114A3C32914201D1F8
:1002600089140FE00E4A5032914202D14FF480318E
:1002700008E00B4A6432914202D14FF4801101E050
:100280004FF08071064A083A5160012180F8211030
:10029000002180F82010416B01B18847204610BD35
:1002A0000800024070B5044600F008F90546601CDD
:1002B00002D004480078044400F000F9401BA0423A
:1002C000FAD370BD100000202DE9F84FDFF8B89187
:1002D000002409F1040A0AF1040B23460F270BF14D
:1002E000040EC9E00125A5402A40AA427DD1674EEF
:1002F000D1F804C0ACEB0608B44532D014DCBCF134
:10030000030F3AD009DCBCF1000F2AD0BCF1010F79
:100310001CD0BCF1020F31D11DE0BCF1110F17D080
:10032000BCF1120F2AD119E0B8F5881F19D006DCEC
:10033000B8F5803F15D0B8F5801F1FD111E0B8F592
:10034000001F0ED0B8F5041F18D10AE0CB6815E0E5
:10035000CB681B1D12E0CB6808330FE0CB680C3371
:100360000CE08B682BB1012B4FF0080303D04561E3
:1003700004E0042302E0056100E00023FF2A01D825
:10038000064601E000F104064FEA840501D9A5F113
:100390002005D6F8008007FA05FC28EA0C0803FAC5
:1003A00005F548EA0508C6F800804D68ED0062D5FD
:1003B000374DAE6946F00106AE61AD6924F0030623
:1003C00005F001050095334D06EB050CDCF80850EF
:1003D000A607360F07FA06F825EA0805DFF8B88001
:1003E000404503D14FF0000817E044E0DFF8AC804F
:1003F000404502D14FF001080FE0DFF8A4804045EE
:1004000002D14FF0020808E0DFF89880404502D1A1
:100410004FF0030801E04FF0040808FA06F848EA34
:100420000508CCF808804D68D9F80060ED034D460A
:1004300001D5164300E096432E604D68DAF800605F
:10044000AD03554601D5164300E096432E604D6836
:10045000DBF80060ED025D4601D5164300E09643EF
:100460002E604D68DEF80060AD02754601D516437A
:1004700000E096432E60641C0D682A46E5407FF438
:1004800031AFBDE8F88F00000004014000001110FA
:10049000001002400000014000080140000C014033
:1004A00000100140001401408068084000D0012085
:1004B00070470AB1016170470904FBE70148806891
:1004C000704700001000002070B504001BD094F8A5
:1004D0003D00002520B984F83C50204600F044F946
:1004E000242084F83D002068016821F001010160AA
:1004F00000F096FA4D4A6168914201D84C4900E0FB
:100500004C49884201D2012070BD4B492368B0FBA1
:10051000F1F15E6826F03F060E435E606368934229
:1005200006D94FF4967359434FF47A73B1FBF3F144
:100530002368491C1E6A26F03F0631431962616830
:10054000914210D84900401EB0FBF1F2521CC2F398
:100550000B02042A01D2042022E0B0FBF1F0401C7F
:10056000C0F30B001CE0A368F3B301EBC10202EB84
:100570000116421EB2FBF6F2521C42F480421205F2
:1005800049D093B301EBC10202EB0111401EB0FB55
:10059000F1F0401CC0F30B0040F4804040F40040F8
:1005A0002168CA694CF6FF739A431043C861D4E9C5
:1005B0000701084321680A6822F0C002104308605E
:1005C000D4E9030101432068826848F2FF339A436B
:1005D00011438160D4E9050108432168CA6822F00B
:1005E000FF021043C86001E00EE016E020680168D9
:1005F00041F0010101602564202084F83D0025635D
:1006000084F83E50002070BD01EB4106421EB2FB53
:10061000F6F2521CB3E70120C2E701EB4101401E94
:10062000B0FBF1F0401CC0F30B00B7E7A08601005F
:1006300080841E0000093D0040420F002DE9F84F64
:100640001F4690468A460446DDF82890FFF736FF9D
:10065000054694F83D0020287FD119230122404906
:100660002046009501F058F9002876D194F83C0016
:10067000012872D0012084F83C0020680168C90775
:1006800003D1016841F0010101602068016821F493
:1006900000610160212084F83D00102084F83E00B4
:1006A00000262664C4F824806785608D20852D4847
:1006B000E0622B464A465146204601F0C3F890B905
:1006C000206841698069009036E02A464946204604
:1006D00001F0A1F950B1206C042804D12068016810
:1006E00041F4007101600120BDE8F88F606A216863
:1006F00000780861606A401C6062618D491E6185F6
:10070000218D491E89B2218522685369DB435B072D
:100710000BD451B100781061606A401C6062608D3A
:10072000401E6085208D401E20852A464946204671
:1007300001F0CCF80028CED1208D0028C5D154F886
:100740003D0B016841F400710160202004F81E098E
:10075000E67766770020C7E7FFE70220C4E70000DE
:10076000020010000000FFFF10B586B000210091CC
:1007700001910291039100680F4988421AD10F4CF0
:10078000A06940F00800A061A069694600F0080077
:100790000490C0200090122001900320039008488C
:1007A000FFF792FDE06940F40010E061E06900F4B9
:1007B0000010049006B010BD00540040001002402C
:1007C000000C014002488168027811448160704742
:1007D00010000020074810B5016841F010010160C9
:1007E000032000F075F8002000F006F800F024F86F
:1007F000002010BD0020024070B50D4D04464FF49E
:100800007A712878B1FBF0F00A490968B1FBF0F081
:1008100000F0ECFA48B9102C07D200222146501EF5
:1008200000F036F800206C6070BD012070BD000043
:10083000100000201C0000200C4808B5816941F020
:1008400001018161816901F001010091C16941F0FB
:100850008051C161C06900F0805000900448416837
:1008600021F0E06141F00071416008BD00100240DC
:1008700000000140002809DB00F01F020121914027
:100880004009800000F1E020C0F80011704700002E
:10089000F0B40E4B1B680C46C3F30223C3F10705EB
:1008A000042D00D90425191D072901D2002300E0D9
:1008B000DB1E012606FA05F1491E214099409E40A3
:1008C000761E16403143F0BC01F015BC0CED00E083
:1008D000064900F0070208684FF6FF03184040EA97
:1008E0000220034A10430860704700000CED00E04E
:1008F0000000FA052DE9F0470F46050061D0434E90
:10090000306800F00700B84209D2306820F00700D4
:1009100038433060306800F00700B84251D1286891
:100920003B4C810712D5400703D5606840F4E06076
:1009300060602878000703D5606840F4605060600C
:100940006068A96820F0F000084360602878C0075C
:1009500028D06868012810D02168022810D08907A3
:1009600000292EDA616821F0030101436160FFF77D
:10097000A5FD804641F288390DE021688903EFE743
:100980008901EDE7FFF79AFDA0EB0801494502D97F
:100990000320BDE8F0876068696800F00C00B0EBE8
:1009A000810FEFD1306800F00700B8420BD93068F2
:1009B00020F0070038433060306800F00700B8428C
:1009C00001D00120E5E72878400705D56068E9688F
:1009D00020F4E060084360602878000706D560686E
:1009E000296920F4605040EAC100606000F038F8E6
:1009F0006168084AC1F30311515CC84006490860A8
:100A000006480068FFF7F8FE0020C2E70020024019
:100A1000001002402C2400081C00002014000020BC
:100A20000448054900684968044AC1F30221515C41
:100A3000C84070471C000020001002403C24000801
:100A40000448054900684968044AC1F3C221515C61
:100A5000C84070471C000020001002403C240008E1
:100A600012A185B00FC98DE80F0014A0144A0068C8
:100A700004905168134801F00C03042B10D0082B8C
:100A80000ED1C1F38343C9031DF803000AD5516891
:100A900004AAC1F34041515C0A4A5043B0FBF1F053
:100AA00005B0704708494843FAE70000020304050F
:100AB000060708090A0B0C0D0E0F101001020000AA
:100AC0000010024000127A0000093D002DE9F84FA5
:100AD000040070D02078C04DC00749D06868C0F3CA
:100AE0008100012807D06868C0F38100022809D17D
:100AF0006868C00306D52868800339D56068002877
:100B0000E7D035E06068B0F5803F0BD010B1B0F5AC
:100B1000A02F11D0286820F480302860286820F4A5
:100B2000802002E0286840F480302860606890B13E
:100B3000FFF7C4FC06460AE0286840F480202860DD
:100B4000F0E700BFFFF7BAFC801B642873D8286861
:100B50008003F7D50CE0FFF7B1FC064605E000BFC7
:100B6000FFF7ACFC801B6428F0D828688003F7D41A
:100B700020789A4E80074FF001094FF0000839D5D0
:100B8000686810F00C0F07D06868C0F38100022875
:100B900009D16868C00306D42868800714D5206985
:100BA000012808D110E02069B0B1C6F80090FFF725
:100BB00085FC074605E00AE1FFF780FCC01B022820
:100BC000C4D828688007F7D52868616920F0F80044
:100BD00040EAC10028600DE0C6F80080FFF76EFC17
:100BE000074604E0FFF76AFCC01B022823D82868E8
:100BF0008007F7D4207800072CD57948A169D9B1AE
:100C0000C0F80090FFF75AFC074604E0FFF756FCD7
:100C1000C01B02280FD8686A8007F7D571484FF4C7
:100C2000FA510068B0FBF1F0009000BF0098411E3F
:100C30000091FAD20EE080E0C0F80080FFF73EFCA1
:100C4000074604E0FFF73AFCC01B022875D8686A23
:100C50008007F7D42078400760D5E8690027C000F6
:100C600008D4E86940F08050E861E869012700F0A5
:100C7000805000905C480168C90513D40168834620
:100C800041F480710160FFF719FC824606E000BF65
:100C9000FFF714FCA0EB0A0064284ED8DBF8000034
:100CA000C005F5D5E06801280AD008B1052813D0A1
:100CB000286A20F001002862286A20F0040002E07F
:100CC000286A40F001002862E06841F2883B98B150
:100CD000FFF7F4FB82460BE0286A40F0040028622C
:100CE000EEE700BFFFF7EAFBA0EB0A0159455AD82F
:100CF000286A8007F6D50CE0FFF7E0FB824605E0A6
:100D0000FFF7DCFBA0EB0A0159454CD8286A8007A5
:100D1000F6D41FB1E86920F08050E861E06988B33B
:100D20006968C1F38101022944D00228C6F86080B5
:100D300004D0FFF7C3FB044638E034E0FFF7BEFB06
:100D4000074604E0FFF7BAFBC01B02282BD828682F
:100D50008001F7D4206AB0F5803F05D16868A168AA
:100D600020F4003008436860D4E90801084369684A
:100D700021F4741108436860C6F86090FFF79EFB89
:100D8000044606E025E000BFFFF798FB001B0228A1
:100D900009D828688001F7D51BE000BFFFF78EFB5C
:100DA000001B022802D90320BDE8F88F28688001C3
:100DB000F4D40EE00128F7D06868226A00F480318C
:100DC000914204D1616A00F47010884201D0012080
:100DD000EAE70020E8E7000000100240000042427D
:100DE000800442421C0000200070004010B5401EEC
:100DF000B0F1807F01D3012010BD4FF0E02460618D
:100E00000F21601701F077F90020A0610720206111
:100E1000002010BD7047704770B590F83C20012A43
:100E200019D0012400F83C4F0222427050F83C3C9B
:100E30005A689D6822F070060A684968324325F0B6
:100E4000800529435A6050F83C2C91604470002181
:100E50000170084670BD022070BD10B5040003D0BB
:100E600094F83D0010B107E0012010BD002084F887
:100E70003C00204600F00CF8022084F83D00211DC3
:100E8000206800F0F5FE012084F83D00002010BD30
:100E900008B500680B49884212D10B48C16941F07E
:100EA0000201C161C069002200F0020000901146F9
:100EB0001D20FFF7EDFCBDE808401D20FFF7DABC60
:100EC00008BD000000040040001002400168CA682C
:100ED00042F00102CA600068816801F0070106293A
:100EE00003D0016841F0010101600020704770B536
:100EF000044690F83C00012817D0012584F83C50A6
:100F0000022084F83D002068826822F0770222F4F3
:100F10007F4282600868502830D00DDC20284DD0F8
:100F200005DC98B310283BD148E0022070BD302882
:100F300044D0402834D139E0602828D0702806D029
:100F4000B0F5805F2CD0B0F5005F29D10AE0CB6806
:100F5000D1E90121206800F0CEFE2068816841F0CF
:100F6000770109E0CB68D1E90121206800F0C3FED8
:100F70002068816841F48041816011E0CA68496855
:100F8000206800F06DFF5021206807E016E0CA6875
:100F90004968206800F075FF6021206800F0B5FE08
:100FA00084F83D50002084F83C0070BDCA68496850
:100FB000206800F055FF40212068EFE722680146D5
:100FC0001046EBE7704770B50446006801694FF0C2
:100FD0000005C943890715D4C168C943890711D4DD
:100FE000E91E016101202077206880698007204682
:100FF00002D0FFF7E7FF04E000F0D8F8204600F049
:101000006BF9257720680169C943490717D4C1687E
:10101000C943490713D46FF004010161022020770E
:101020002068806910F4407F204602D0FFF7CAFF95
:1010300004E000F0BBF8204600F04EF92577206868
:101040000169C943090716D4C168C943090712D405
:101050006FF008010161042020772068C0698007D3
:10106000204602D0FFF7AEFF04E000F09FF82046D4
:1010700000F032F9257720680169C943C90617D401
:10108000C168C943C90613D46FF01001016108207B
:1010900020772068C06910F4407F204602D0FFF717
:1010A00091FF04E000F082F8204600F015F9257762
:1010B00020680169C943C90708D1C168C943C90784
:1010C00004D1891E0161204600F024F920680169DD
:1010D000C943090609D4C168C943090605D46FF09C
:1010E000800101612046FFF795FE20680169C94330
:1010F000490609D4C168C943490605D46FF04001C7
:101100000161204600F04CF920680169C943890655
:101110000BD4C168C943890607D46FF0200101616F
:101120002046BDE87040FFF776BE70BD10B586B0B2
:10113000002100910191029103910068B0F1804F6C
:101140002AD11648816941F004018161816901F069
:1011500004010491816941F00801816180690224E0
:1011600000F0080004900120CDE9000469460C4815
:101170000394FFF7A9F86002CDE900046946094825
:101180000394FFF7A1F80848416821F4407141F049
:10119000E06141F40071416006B010BD00100240F2
:1011A00000080140000C014000000140704770B58C
:1011B000044690F83C000D4601280DD0012684F825
:1011C0003C60022084F83D0042B1042A18D0082A6D
:1011D0002AD00C2A4DD139E0022070BD206800F0E1
:1011E0009DFD2068816941F0080181612068816965
:1011F00021F004018161206881692A69114311E0AD
:10120000206800F0B3FD2068816941F400618161CC
:101210002068816921F480618161206881692A697F
:1012200041EA0221816124E0206800F0CBFD2068C2
:10123000C16941F00801C1612068C16921F0040160
:10124000C1612068C1692A69114311E0206800F07A
:10125000E5FD2068C16941F40061C1612068C16990
:1012600021F48061C1612068C1692A6941EA0221D3
:10127000C16184F83D60002084F83C0070BD10B569
:10128000040003D094F83D0010B107E0012010BD28
:10129000002084F83C00204600F00CF8022084F87E
:1012A0003D00211D206800F0E3FC012084F83D0092
:1012B000002010BD08B50068B0F1804F08D1054886
:1012C000C16941F00101C161C06900F001000090F5
:1012D00008BD0000001002407047000010B5044631
:1012E0000068012200F0FAFC09492068884203D115
:1012F000416C41F4004141642068816801F00701BC
:10130000062903D0016841F001010160002010BDF1
:10131000002C014070B500681D49884222D11D4C47
:1013200001212046FFF7C0F8A11501281BD000229B
:101330002046FFF7BEF8184C2078401CC0B2207041
:101340003C2812D9002020706178491CC9B2617014
:101350003C290AD96070A178491CC9B2A17018292A
:1013600003D9A07070BD0122E2E7A0780B4D1228CE
:1013700004D1012210212846FFF79BF8A078052808
:10138000F0D12846BDE8704000221021FFF791B847
:1013900000040040000C0140000000200008014053
:1013A0007047704770B5026804461068D168536989
:1013B00010F00F0F50D003F0010501F49076354383
:1013C0005DD0C20705D0CA0503D5E26B42F0010229
:1013D000E263420705D5DA0703D0E26B42F002026E
:1013E000E263820705D5DA0703D0E26B42F004021C
:1013F000E263020705D5DA0703D0E26B42F0080288
:10140000E263E26B002A33D0800604D5880602D559
:10141000204600F05EFD20684069E16BC0F380105B
:10142000090700D428B3204600F045FD2068416933
:1014300049061AD5416921F040014161606BA0B1B4
:101440001B494163606BFEF7E1FE002810D0606B22
:10145000416BBDE870400847830610D58B060ED55A
:101460002046BDE8704000F034BD2046FFF799FFEC
:1014700070BD2046FFF795FF0020E06370BD0306B6
:1014800006D50B0604D52046BDE8704000F0C8BD67
:101490004006F3D54806F1D5D168204621F0400139
:1014A000D160202184F8391000F0B3F970BD00003C
:1014B000A71E000870B5040004D094F83900002578
:1014C00010B106E0012070BD84F83850204600F0CD
:1014D00023F8242084F839002068C16821F40051E1
:1014E000C160204600F040FD2068016921F4904170
:1014F00001612068416921F02A0141612068C168C9
:1015000041F40051C160E563202084F8390084F87B
:101510003A00002070BD000030B585B00024009472
:101520000194029403940068184988422CD1184809
:10153000816941F480418161816901F480410491B4
:10154000816941F0040181618069124D00F004005D
:1015500004904FF40070009002200190032003904B
:1015600069462846FEF7B0FE2815CDE90004694615
:1015700028460294FEF7A8FE002211462520FFF718
:1015800087F92520FFF776F905B030BD0038014016
:10159000001002400008014090F83A30202B22D180
:1015A000F9B1F2B190F83830012B1CD081628285FC
:1015B000C2850021C163222280F83A2080F83810C9
:1015C0000168CA6842F48072CA6001684A6942F0E0
:1015D00001024A610068C16841F02001C160002039
:1015E0007047012070470220704700002DE9F0414C
:1015F00000684D49884270D14C4F4D4A0026F97819
:1016000029B900201654401CC0B20A28FAD3474812
:10161000093000780D2803D05054491CF97077E048
:1016200044A14348FEF790FD434C4FF47A7808B14B
:10163000012205E041A13E48FEF786FD28B10022C7
:1016400008212046FEF735FF5AE03DA13848FEF755
:101650007BFD08B1012205E03AA13548FEF774FD93
:1016600010B100220221ECE737A13148FEF76CFDF2
:101670002F4C42F21075D03C68B121687D20486340
:1016800000200221491C9629FCDB401CA842F8DB03
:101690002068466334E02DA12548FEF755FD58B17A
:1016A00021683220486300200221491C9629FCDB76
:1016B000401CA842F8DBEBE725A11D48FEF744FDDE
:1016C00060B121689620C86300200221491C32299C
:1016D000FCDB401CA842F8DB10E022E01DA114480E
:1016E000FEF732FD98B121684B20C863002002212B
:1016F000491C3729FCDB401CA842F8DB2068C66384
:101700000B4943460322A1F1500000F025F8FE707A
:10171000BDE8F04105490648012209315038FFF77C
:101720003BBFBDE8F0810000003801400000002010
:10173000440100204E473000000801404E47310070
:10174000544130005441310053563000535631005B
:1017500044523000445231002DE9F843044690F8D9
:1017600039001F4616460D46202850D1A5B19EB11E
:1017700094F8380001284AD0012084F838004FF04E
:101780000008C4F83C80212084F83900FEF796FE5A
:10179000A6848146E68426E00120BDE8F883E08C3B
:1017A000401EE084A0684B46B0F5805F4FF0000219
:1017B0004FF080012046009703D000F062FCE8B9AA
:1017C0000DE000F05EFCC8B928882168C0F308006D
:1017D0004860206908B16D1C05E0AD1C03E021687C
:1017E00015F8010B4860E08C0028D8D14B46002248
:1017F00040212046009700F044FC08B10320CCE7CC
:10180000202084F8390084F838800020C5E70220C1
:10181000C3E77047FEE701684A69D24352050FD417
:101820006FF480624A61002140F8301F2022427329
:101830008173026942F00402026101730120704762
:1018400000207047F8B50446C06A1E460D4617468C
:10185000082807D0012805D010F5803F02D0206B62
:10186000122804D12068016841F480710160134698
:1018700000224FF001112046009600F04DF808BB01
:101880002069B0F5804F0ED00620216800EAD510FF
:1018900040F0F000086133463A460B49204600F01C
:1018A0006FF878B902E005F0FE0000E0E8B22168C8
:1018B0000861054933463A46891F204600F060F822
:1018C000002800D00120F8BD0800010070B51646C0
:1018D0000D4604460DE02046FFF79DFF08B10120AC
:1018E00070BD681C05D0FEF7E9FD801BA84207D833
:1018F00035B120684069C0434007ECD4002070BD7A
:10190000002044F8300F20216173A073216941F059
:10191000200121612073E2E72DE9F0471E46904641
:101920000D460446C1F30747DDF8209008E0701C1F
:1019300006D0FEF7C3FDA0EB0900B0420FD876B188
:101940002068012F18D0806925EA00000004000CEF
:1019500014D000214145EAD00020BDE8F0870020E6
:1019600044F8300F20216173A073216941F02001F8
:10197000216120730120F0E74069E5E70121E9E7F3
:101980002DE9F0479A4691460E46044600254FF051
:101990002008C1F3074725E020684069C04340059F
:1019A00014D42068016841F40071016021686FF46B
:1019B00080604861256384F83D8084F83E50206C47
:1019C00040F00400206484F83C501FE0B9F1FF3F70
:1019D00008D0FEF773FDA0EB0A0149450CD8B9F118
:1019E000000F09D02068012F13D0806926EA00007B
:1019F0000004000C0BD0CFE744F8305F84F80D8072
:101A0000A573206940F02000206125730120BDE806
:101A1000F0874069EAE770B516460D4604460DE0CA
:101A20002046FFF7F8FE08B1012070BD681C05D004
:101A3000FEF744FD801BA84207D835B120684069F5
:101A4000C0430006ECD4002070BD002044F8300FE5
:101A500020216173A073216941F02001216120736D
:101A6000E2E700002DE9F04385B00024244800940B
:101A7000019402940394816941F0040181618169B8
:101A800001F004010491816941F0080181618069DC
:101A9000DFF8708000F00800049000221E2140460C
:101AA000FEF707FDDFF860904FF48077002239469B
:101AB0004846FEF7FEFC1E2001250226CDE9000562
:101AC000CDE9024669464046FEF7FEFB8020CDE99F
:101AD0000004694640460294FEF7F6FBCDE9005447
:101AE000694648460296FEF7EFFB00970396CDE95C
:101AF000015469464846FEF7E7FB05B0BDE8F083B0
:101B00000010024000080140000C014010B58AB0EE
:101B1000002407941C2168460894FEF70AFB144829
:101B20004FF0804101606321C0E9011440F23F6140
:101B3000C0E903148461FFF7A2FB079407A90C48CE
:101B40000894FFF769F96020CDE9000402940022AF
:101B5000694607480494FFF72AFB082269460448AF
:101B6000FFF725FB0248FFF7E1FA0AB010BD0000BD
:101B70007400002010B586B000241248009401942F
:101B80000294039404940E49059401604FF4FA51B1
:101B9000C0E9011440F2E731C0E903148461FFF7A2
:101BA0005CF94FF48050009069460648FFF79FF9B2
:101BB000049404A903480594FFF72EF906B010BD5C
:101BC00000040040B4000020FEE7704770477047F3
:101BD000FEF7F8BD10B590B028216846FEF7A9FAC7
:101BE00014210AA8FEF7A5FA022000900120049013
:101BF00010200024059007946846FEF767FF0F2029
:101C0000CDE90A044FF48060CDE90C4000210AA818
:101C10000E94FEF76FFE10B010BD00000D48016875
:101C200041F00101016041680B4A114041600168C7
:101C30000A4A11400160016821F480210160416875
:101C400021F4FE0141604FF41F0181600449C0038B
:101C500008607047001002400000FFF8FFFFF6FE2A
:101C600008ED00E00148FFF7AEB90000B400002025
:101C7000F0B50268164B174C174D4FF0804798424D
:101C800005D0B84203D0A04201D0A84203D122F02F
:101C900070064A683243984205D0B84203D0A04249
:101CA00001D0A84203D122F44074CA6822434C698F
:101CB00022F08002224302608A68C2620A6882625D
:101CC000984201D10969016301214161F0BD000021
:101CD000002C0140000400400008004010B501F055
:101CE0001F030121046A99408C430462016A9A40EF
:101CF0001143016210BD10B5846842EA032224F446
:101D00007F440A432243826010BD826822F0700241
:101D10000A4342F0070181607047000030B5026A53
:101D200022F001020262026A4368846924F07305AA
:101D30000C682C4322F002058A682A430A4DA84207
:101D40000BD122F00805CA6823F440732A434D6979
:101D500022F004021D438B692B4343608461496870
:101D60004163026230BD0000002C014030B5026AC0
:101D700022F010020262026A436884690D6824F44A
:101D8000E64444EA05248D6822F0200242EA051266
:101D90000B4DA8420ED1CD6822F0800242EA051216
:101DA0004D6923F4406343EA85038D6922F04002C4
:101DB00043EA85034360846149688163026230BD00
:101DC000002C014030B5026A22F480720262036A7C
:101DD0004268C46923F4007324F073050C682C4333
:101DE0008D6843EA05230C4DA8420ED1CD6823F43B
:101DF000006343EA05234D6922F4405242EA05128A
:101E00008D6923F4806342EA05124260C461496827
:101E1000C163036230BD0000002C014030B5026A8E
:101E200022F480520262046A4268C3690D6823F496
:101E3000E64343EA05238D6824F4005444EA05345C
:101E4000064DA84204D14D6922F4804242EA85122F
:101E50004260C36149680164046230BD002C0140E6
:101E600010B5036A046A24F001040462846924F052
:101E7000F00444EA021423F00A020A438461026275
:101E800010BD10B5036A23F0100303628369046A6E
:101E900023F4704343EA023224F0A00343EA011121
:101EA0008261016210BD10B5406A0021C185C18404
:101EB000FFF777FA10BD0168CA6822F49072CA6011
:101EC00001684A6922F001024A61202180F83A1033
:101ED000704710B590F83A10222901D0022010BDA9
:101EE0008168B1F5805F11D00169002901681FD0B8
:101EF000496801F07F03816A4A1C82620B70C18DC0
:101F0000491E0904090CC18518D02BE00269816AB9
:101F1000002A0268526805D0D2B20A80816A491C40
:101F20008162ECE7C2F308020A80816A891CF7E744
:101F30004A68816A4B1C83620A70E0E70168CA68DC
:101F400022F02002CA600168CA6822F48072CA6066
:101F500001684A6922F001024A61202180F83A10A2
:101F6000FFF744FB002010BD2DE9F0410446006856
:101F70000169E26821F44051114301612169A068BF
:101F80000843616908432168CA6841F20C639A43B7
:101F90000243CA6020684169A26921F4407111437B
:101FA00041611E49206864253226884202D1FEF72D
:101FB00047FD01E0FEF734FD00EBC00101EB00112D
:101FC00060686FF018078000B1FBF0F2B2FBF5F229
:101FD000B1FBF0F37A4303EB8202B1FBF0F306EBC3
:101FE0000212B2FBF5F2B3FBF5F302F0F00202EBE2
:101FF0000312B1FBF0F3B1FBF0F0B0FBF5F0784366
:1020000003EB800006EB0010B0FBF5F0216800F058
:102010000F0010448860BDE8F081000000380140E6
:1020200090F83910212901D0022070478168B1F55C
:10203000805F016A0BD04A1C026202680978516015
:10204000C18C491E0904090CC1840ED017E009880F
:102050000268C1F30801516001690029016A02D0D8
:10206000491C0162ECE7891CFBE70168CA6822F0A1
:102070008002CA600068C16841F04001C160002070
:1020800070472DE9F041984617460E460446069DD6
:102090001DE0681C1BD02DB1FEF710FAA0EB080064
:1020A000A84214D92068C16821F4D071C1602068A9
:1020B000416921F001014161202084F8390084F850
:1020C0003A00002084F838000320BDE8F081206841
:1020D000006836EA000004D00020B842D9D00020C1
:1020E000F3E70120F9E700000148FFF75BB90000C2
:1020F000F4000020FEE70907090E002804DB00F1C8
:10210000E02080F80014704700F00F0000F1E0209C
:1021100080F8141D704702E008C8121F08C1002A89
:10212000FAD170477047002001E001C1121F002A58
:10213000FBD1704710B52820FEF73EF80B4C8021EC
:102140002046FEF7B1F950B95020FEF735F880214E
:102150002046FEF7A9F910B1054901200872802137
:102160002046FEF7A1F90028F9D110BD0008014072
:102170000000002010B5332000F02AF8322000F0D3
:1021800027F83220FEF78EF8282000F021F83220C0
:10219000FEF788F8012000F01BF83220FEF782F8E5
:1021A000062000F015F83220FEF77CF80C2000F035
:1021B0000FF83220FEF776F8022000F009F83220FE
:1021C000FEF770F8BDE81040802000F001B8000074
:1021D0001CB500F0F00141F00C028DF8042041F034
:1021E000080100018DF8051040F00C018DF8061073
:1021F00040F008008DF8070064200090042301AA35
:102200004E210248FEF71AFA1CBD000020000020F3
:102210001CB500F0F00141F00D028DF8042041F0F2
:10222000090100018DF8051040F00D018DF8061030
:1022300040F009008DF8070064200090042301AAF3
:102240004E210248FEF7FAF91CBD000020000020D4
:1022500010B5044602E0641CFFF7DAFF207800287E
:10226000F9D110BDFEF7B6FAFFF7B4FCFFF7FAFBA1
:102270003E483D49002401603D49C0E901144FF446
:102280008041C0E9034144618461C4610462FEF796
:102290001BF9FFF76FFCFFF739FC34483549D430A0
:1022A00001604FF4E131C0E901140C21C460C0E9C0
:1022B00004418461C461FFF7FDF82C4801222E49D6
:1022C000D430FFF769F9294800215430FFF706F8A8
:1022D000264808215430FFF701F8FDF781FFFFF78A
:1022E00049FF22489430FEF7F1FD234CB4F1090474
:1022F000FDF750FFFFF71EFF00F04CF8207100F0D3
:1023000049F8607100F046F8A07100F043F8E07100
:1023100000F040F8A081217962791144A27911443A
:10232000E27911448142E3D18020FFF751FF13A0ED
:10233000FFF78EFFC020FFF74BFF13A0FFF788FFCA
:10234000A0790A25B0FBF5F03030C0B2FFF760FF8E
:10235000A079B0FBF5F105FB11003030FFF758FF15
:102360000BA0FFF775FFC3E70054004020000020DA
:10237000A086010000380140090000204C4B484174
:102380004E4839392000000054454D503A20000095
:10239000206F43002DE9F0410024144F01268021D5
:1023A0003846FEF781F80028F9D02820FDF704FF11
:1023B00080213846FEF778F890B1C4F1070106FA9B
:1023C00001F02843C5B280213846FEF76DF8002899
:1023D000F9D1641CE4B2082CE1D32846BDE8F081B1
:1023E000C4F1070006FA00F08543ECE7000801405D
:1023F000044880210160002141608160014602485B
:10240000FDF762BF3401002000080140054880212B
:102410000160012141600221C16001460248FDF7CF
:1024200053BF0000340100200008014000000000FC
:102430000000000001020304060708090000000074
:1024400001020304642400080000002020000000B2
:102450001621000884240008200000203005000018
:1024600026210008001412000000000000000000F7
:10247000000000000100000010000000000000004B
:042480000024F40040
:04000005080000ED02
:00000001FF
